{
  "contractName": "AstherSale",
  "abi": [
    {
      "inputs": [],
      "stateMutability": "nonpayable",
      "type": "constructor"
    },
    {
      "anonymous": false,
      "inputs": [
        {
          "indexed": true,
          "internalType": "address",
          "name": "previousOwner",
          "type": "address"
        },
        {
          "indexed": true,
          "internalType": "address",
          "name": "newOwner",
          "type": "address"
        }
      ],
      "name": "OwnershipTransferred",
      "type": "event"
    },
    {
      "anonymous": false,
      "inputs": [
        {
          "indexed": false,
          "internalType": "uint256",
          "name": "rate",
          "type": "uint256"
        }
      ],
      "name": "RateChanged",
      "type": "event"
    },
    {
      "anonymous": false,
      "inputs": [
        {
          "indexed": true,
          "internalType": "address",
          "name": "beneficiary",
          "type": "address"
        },
        {
          "indexed": false,
          "internalType": "uint256",
          "name": "tokenAmount",
          "type": "uint256"
        }
      ],
      "name": "TokensPurchased",
      "type": "event"
    },
    {
      "stateMutability": "payable",
      "type": "fallback"
    },
    {
      "inputs": [],
      "name": "owner",
      "outputs": [
        {
          "internalType": "address",
          "name": "",
          "type": "address"
        }
      ],
      "stateMutability": "view",
      "type": "function"
    },
    {
      "inputs": [],
      "name": "renounceOwnership",
      "outputs": [],
      "stateMutability": "nonpayable",
      "type": "function"
    },
    {
      "inputs": [
        {
          "internalType": "address",
          "name": "newOwner",
          "type": "address"
        }
      ],
      "name": "transferOwnership",
      "outputs": [],
      "stateMutability": "nonpayable",
      "type": "function"
    },
    {
      "stateMutability": "payable",
      "type": "receive"
    },
    {
      "inputs": [],
      "name": "buyAstherwithBNB",
      "outputs": [],
      "stateMutability": "payable",
      "type": "function"
    },
    {
      "inputs": [
        {
          "internalType": "uint256",
          "name": "amount",
          "type": "uint256"
        }
      ],
      "name": "buyAstherwithBUSD",
      "outputs": [],
      "stateMutability": "nonpayable",
      "type": "function"
    },
    {
      "inputs": [
        {
          "internalType": "uint256",
          "name": "amount",
          "type": "uint256"
        }
      ],
      "name": "buyAstherwithUSDT",
      "outputs": [],
      "stateMutability": "nonpayable",
      "type": "function"
    },
    {
      "inputs": [],
      "name": "forwardBNB",
      "outputs": [],
      "stateMutability": "nonpayable",
      "type": "function"
    },
    {
      "inputs": [],
      "name": "forwardAsther",
      "outputs": [],
      "stateMutability": "nonpayable",
      "type": "function"
    },
    {
      "inputs": [],
      "name": "forwardBUSD",
      "outputs": [],
      "stateMutability": "nonpayable",
      "type": "function"
    },
    {
      "inputs": [],
      "name": "token",
      "outputs": [
        {
          "internalType": "contract IERC20",
          "name": "",
          "type": "address"
        }
      ],
      "stateMutability": "view",
      "type": "function"
    },
    {
      "inputs": [],
      "name": "wallet",
      "outputs": [
        {
          "internalType": "address payable",
          "name": "",
          "type": "address"
        }
      ],
      "stateMutability": "view",
      "type": "function"
    },
    {
      "inputs": [],
      "name": "rate",
      "outputs": [
        {
          "internalType": "uint256",
          "name": "",
          "type": "uint256"
        }
      ],
      "stateMutability": "view",
      "type": "function"
    },
    {
      "inputs": [
        {
          "internalType": "uint256",
          "name": "r",
          "type": "uint256"
        }
      ],
      "name": "setRate",
      "outputs": [],
      "stateMutability": "nonpayable",
      "type": "function"
    },
    {
      "inputs": [],
      "name": "saleEnded",
      "outputs": [
        {
          "internalType": "bool",
          "name": "",
          "type": "bool"
        }
      ],
      "stateMutability": "view",
      "type": "function"
    },
    {
      "inputs": [
        {
          "internalType": "bool",
          "name": "end",
          "type": "bool"
        }
      ],
      "name": "setEnd",
      "outputs": [],
      "stateMutability": "nonpayable",
      "type": "function"
    },
    {
      "inputs": [],
      "name": "tokensSold",
      "outputs": [
        {
          "internalType": "uint256",
          "name": "",
          "type": "uint256"
        }
      ],
      "stateMutability": "view",
      "type": "function"
    },
    {
      "inputs": [],
      "name": "remainingTokens",
      "outputs": [
        {
          "internalType": "uint256",
          "name": "",
          "type": "uint256"
        }
      ],
      "stateMutability": "view",
      "type": "function"
    }
  ],
  "bytecode": "0x60806040527387ea38c9f24264ec1fff41b04ec94a97caf99941600660016101000a81548173ffffffffffffffffffffffffffffffffffffffff021916908373ffffffffffffffffffffffffffffffffffffffff16021790555073e9e7cea3dedca5984780bafc599bd69add087d56600760006101000a81548173ffffffffffffffffffffffffffffffffffffffff021916908373ffffffffffffffffffffffffffffffffffffffff1602179055507355d398326f99059ff775485246999027b3197955600860006101000a81548173ffffffffffffffffffffffffffffffffffffffff021916908373ffffffffffffffffffffffffffffffffffffffff16021790555034801561010f57600080fd5b506001600081905550600061012861029960201b60201c565b905080600160006101000a81548173ffffffffffffffffffffffffffffffffffffffff021916908373ffffffffffffffffffffffffffffffffffffffff1602179055508073ffffffffffffffffffffffffffffffffffffffff16600073ffffffffffffffffffffffffffffffffffffffff167f8be0079c531659141344cd1fd0a4f28419497f9722a3daafe3b4186f6b6457e060405160405180910390a350600560048190555073a60205f7a2e709bbf7b74d761142cc35d85465a0600360006101000a81548173ffffffffffffffffffffffffffffffffffffffff021916908373ffffffffffffffffffffffffffffffffffffffff160217905550731bffafdf98f9266afef906385fb2a44bc3dcadc9600260006101000a81548173ffffffffffffffffffffffffffffffffffffffff021916908373ffffffffffffffffffffffffffffffffffffffff1602179055506000600660006101000a81548160ff0219169083151502179055506102a1565b600033905090565b612908806102b06000396000f3fe6080604052600436106101025760003560e01c806388ac9cd411610095578063a4934b1411610064578063a4934b14146102bc578063bf583903146102d3578063f0e3d1ba146102fe578063f2fde38b14610327578063fc0c546a1461035057610111565b806388ac9cd4146102265780638da5cb5b1461023d5780639af5b151146102685780639b8906ae1461029157610111565b80635a2f33ab116100d15780635a2f33ab146101c557806370559406146101dc578063715018a61461020557806385b28c9f1461021c57610111565b80632c4e722e1461011b57806334fcf43714610146578063518ab2a81461016f578063521eb2731461019a57610111565b366101115761010f61037b565b005b61011961037b565b005b34801561012757600080fd5b50610130610562565b60405161013d9190611c36565b60405180910390f35b34801561015257600080fd5b5061016d60048036038101906101689190611c82565b61056c565b005b34801561017b57600080fd5b50610184610646565b6040516101919190611c36565b60405180910390f35b3480156101a657600080fd5b506101af610650565b6040516101bc9190611cf0565b60405180910390f35b3480156101d157600080fd5b506101da61067a565b005b3480156101e857600080fd5b5061020360048036038101906101fe9190611c82565b61082b565b005b34801561021157600080fd5b5061021a610b58565b005b61022461037b565b005b34801561023257600080fd5b5061023b610cb0565b005b34801561024957600080fd5b50610252610d1b565b60405161025f9190611d2c565b60405180910390f35b34801561027457600080fd5b5061028f600480360381019061028a9190611c82565b610d45565b005b34801561029d57600080fd5b506102a6611072565b6040516102b39190611d62565b60405180910390f35b3480156102c857600080fd5b506102d1611089565b005b3480156102df57600080fd5b506102e8611195565b6040516102f59190611c36565b60405180910390f35b34801561030a57600080fd5b5061032560048036038101906103209190611da9565b61125c565b005b34801561033357600080fd5b5061034e60048036038101906103499190611e02565b611310565b005b34801561035c57600080fd5b506103656114d6565b6040516103729190611e8e565b60405180910390f35b6002600054036103c0576040517f08c379a00000000000000000000000000000000000000000000000000000000081526004016103b790611f06565b60405180910390fd5b600260008190555060006103d2611500565b905060003490506000810361041c576040517f08c379a000000000000000000000000000000000000000000000000000000000815260040161041390611f72565b60405180910390fd5b6000600660019054906101000a900473ffffffffffffffffffffffffffffffffffffffff1673ffffffffffffffffffffffffffffffffffffffff166350d25bcd6040518163ffffffff1660e01b8152600401602060405180830381865afa15801561048b573d6000803e3d6000fd5b505050506040513d601f19601f820116820180604052508101906104af9190611fc8565b905060006104e86104e3836104d5670de0b6b3a76400008761150890919063ffffffff16565b61158290919063ffffffff16565b6115cc565b90506104f48482611613565b6104fe8482611763565b8373ffffffffffffffffffffffffffffffffffffffff167f8f28852646c20cc973d3a8218f7eefed58c25c909f78f0265af4818c3d4dc271826040516105449190611c36565b60405180910390a2610554610cb0565b505050506001600081905550565b6000600454905090565b610574611500565b73ffffffffffffffffffffffffffffffffffffffff16600160009054906101000a900473ffffffffffffffffffffffffffffffffffffffff1673ffffffffffffffffffffffffffffffffffffffff1614610603576040517f08c379a00000000000000000000000000000000000000000000000000000000081526004016105fa90612041565b60405180910390fd5b806004819055507f595a30f13a69b616c4d568e2a2b7875fdfe86e4300a049953c76ee278f8f3f1060045460405161063b9190611c36565b60405180910390a150565b6000600554905090565b6000600360009054906101000a900473ffffffffffffffffffffffffffffffffffffffff16905090565b6000600260009054906101000a900473ffffffffffffffffffffffffffffffffffffffff1673ffffffffffffffffffffffffffffffffffffffff166370a08231306040518263ffffffff1660e01b81526004016106d79190611d2c565b602060405180830381865afa1580156106f4573d6000803e3d6000fd5b505050506040513d601f19601f820116820180604052508101906107189190612076565b111561082957610828600360009054906101000a900473ffffffffffffffffffffffffffffffffffffffff16600260009054906101000a900473ffffffffffffffffffffffffffffffffffffffff1673ffffffffffffffffffffffffffffffffffffffff166370a08231306040518263ffffffff1660e01b815260040161079f9190611d2c565b602060405180830381865afa1580156107bc573d6000803e3d6000fd5b505050506040513d601f19601f820116820180604052508101906107e09190612076565b600260009054906101000a900473ffffffffffffffffffffffffffffffffffffffff1673ffffffffffffffffffffffffffffffffffffffff166117719092919063ffffffff16565b5b565b600260005403610870576040517f08c379a000000000000000000000000000000000000000000000000000000000815260040161086790611f06565b60405180910390fd5b60026000819055506000610882611500565b9050600082036108c7576040517f08c379a00000000000000000000000000000000000000000000000000000000081526004016108be90611f72565b60405180910390fd5b81600760009054906101000a900473ffffffffffffffffffffffffffffffffffffffff1673ffffffffffffffffffffffffffffffffffffffff166370a08231836040518263ffffffff1660e01b81526004016109239190611d2c565b602060405180830381865afa158015610940573d6000803e3d6000fd5b505050506040513d601f19601f820116820180604052508101906109649190612076565b10156109a5576040517f08c379a000000000000000000000000000000000000000000000000000000000815260040161099c906120ef565b60405180910390fd5b81600760009054906101000a900473ffffffffffffffffffffffffffffffffffffffff1673ffffffffffffffffffffffffffffffffffffffff1663dd62ed3e83306040518363ffffffff1660e01b8152600401610a0392919061210f565b602060405180830381865afa158015610a20573d6000803e3d6000fd5b505050506040513d601f19601f82011682018060405250810190610a449190612076565b1015610a85576040517f08c379a0000000000000000000000000000000000000000000000000000000008152600401610a7c90612184565b60405180910390fd5b6000610a90836115cc565b9050610a9c8282611613565b610aeb823085600760009054906101000a900473ffffffffffffffffffffffffffffffffffffffff1673ffffffffffffffffffffffffffffffffffffffff166117f7909392919063ffffffff16565b610af58282611763565b8173ffffffffffffffffffffffffffffffffffffffff167f8f28852646c20cc973d3a8218f7eefed58c25c909f78f0265af4818c3d4dc27182604051610b3b9190611c36565b60405180910390a2610b4b611089565b5050600160008190555050565b610b60611500565b73ffffffffffffffffffffffffffffffffffffffff16600160009054906101000a900473ffffffffffffffffffffffffffffffffffffffff1673ffffffffffffffffffffffffffffffffffffffff1614610bef576040517f08c379a0000000000000000000000000000000000000000000000000000000008152600401610be690612041565b60405180910390fd5b600073ffffffffffffffffffffffffffffffffffffffff16600160009054906101000a900473ffffffffffffffffffffffffffffffffffffffff1673ffffffffffffffffffffffffffffffffffffffff167f8be0079c531659141344cd1fd0a4f28419497f9722a3daafe3b4186f6b6457e060405160405180910390a36000600160006101000a81548173ffffffffffffffffffffffffffffffffffffffff021916908373ffffffffffffffffffffffffffffffffffffffff160217905550565b600360009054906101000a900473ffffffffffffffffffffffffffffffffffffffff1673ffffffffffffffffffffffffffffffffffffffff166108fc479081150290604051600060405180830381858888f19350505050158015610d18573d6000803e3d6000fd5b50565b6000600160009054906101000a900473ffffffffffffffffffffffffffffffffffffffff16905090565b600260005403610d8a576040517f08c379a0000000000000000000000000000000000000000000000000000000008152600401610d8190611f06565b60405180910390fd5b60026000819055506000610d9c611500565b905060008203610de1576040517f08c379a0000000000000000000000000000000000000000000000000000000008152600401610dd890611f72565b60405180910390fd5b81600860009054906101000a900473ffffffffffffffffffffffffffffffffffffffff1673ffffffffffffffffffffffffffffffffffffffff166370a08231836040518263ffffffff1660e01b8152600401610e3d9190611d2c565b602060405180830381865afa158015610e5a573d6000803e3d6000fd5b505050506040513d601f19601f82011682018060405250810190610e7e9190612076565b1015610ebf576040517f08c379a0000000000000000000000000000000000000000000000000000000008152600401610eb6906120ef565b60405180910390fd5b81600760009054906101000a900473ffffffffffffffffffffffffffffffffffffffff1673ffffffffffffffffffffffffffffffffffffffff1663dd62ed3e83306040518363ffffffff1660e01b8152600401610f1d92919061210f565b602060405180830381865afa158015610f3a573d6000803e3d6000fd5b505050506040513d601f19601f82011682018060405250810190610f5e9190612076565b1015610f9f576040517f08c379a0000000000000000000000000000000000000000000000000000000008152600401610f9690612184565b60405180910390fd5b6000610faa836115cc565b9050610fb68282611613565b611005823085600860009054906101000a900473ffffffffffffffffffffffffffffffffffffffff1673ffffffffffffffffffffffffffffffffffffffff166117f7909392919063ffffffff16565b61100f8282611763565b8173ffffffffffffffffffffffffffffffffffffffff167f8f28852646c20cc973d3a8218f7eefed58c25c909f78f0265af4818c3d4dc271826040516110559190611c36565b60405180910390a2611065611089565b5050600160008190555050565b6000600660009054906101000a900460ff16905090565b611193600360009054906101000a900473ffffffffffffffffffffffffffffffffffffffff16600760009054906101000a900473ffffffffffffffffffffffffffffffffffffffff1673ffffffffffffffffffffffffffffffffffffffff166370a08231306040518263ffffffff1660e01b815260040161110a9190611d2c565b602060405180830381865afa158015611127573d6000803e3d6000fd5b505050506040513d601f19601f8201168201806040525081019061114b9190612076565b600760009054906101000a900473ffffffffffffffffffffffffffffffffffffffff1673ffffffffffffffffffffffffffffffffffffffff166117719092919063ffffffff16565b565b6000600260009054906101000a900473ffffffffffffffffffffffffffffffffffffffff1673ffffffffffffffffffffffffffffffffffffffff1663dd62ed3e600360009054906101000a900473ffffffffffffffffffffffffffffffffffffffff16306040518363ffffffff1660e01b81526004016112169291906121c5565b602060405180830381865afa158015611233573d6000803e3d6000fd5b505050506040513d601f19601f820116820180604052508101906112579190612076565b905090565b611264611500565b73ffffffffffffffffffffffffffffffffffffffff16600160009054906101000a900473ffffffffffffffffffffffffffffffffffffffff1673ffffffffffffffffffffffffffffffffffffffff16146112f3576040517f08c379a00000000000000000000000000000000000000000000000000000000081526004016112ea90612041565b60405180910390fd5b80600660006101000a81548160ff02191690831515021790555050565b611318611500565b73ffffffffffffffffffffffffffffffffffffffff16600160009054906101000a900473ffffffffffffffffffffffffffffffffffffffff1673ffffffffffffffffffffffffffffffffffffffff16146113a7576040517f08c379a000000000000000000000000000000000000000000000000000000000815260040161139e90612041565b60405180910390fd5b600073ffffffffffffffffffffffffffffffffffffffff168173ffffffffffffffffffffffffffffffffffffffff1603611416576040517f08c379a000000000000000000000000000000000000000000000000000000000815260040161140d90612260565b60405180910390fd5b8073ffffffffffffffffffffffffffffffffffffffff16600160009054906101000a900473ffffffffffffffffffffffffffffffffffffffff1673ffffffffffffffffffffffffffffffffffffffff167f8be0079c531659141344cd1fd0a4f28419497f9722a3daafe3b4186f6b6457e060405160405180910390a380600160006101000a81548173ffffffffffffffffffffffffffffffffffffffff021916908373ffffffffffffffffffffffffffffffffffffffff16021790555050565b6000600260009054906101000a900473ffffffffffffffffffffffffffffffffffffffff16905090565b600033905090565b600080830361151a576000905061157c565b6000828461152891906122af565b90508284826115379190612320565b14611577576040517f08c379a000000000000000000000000000000000000000000000000000000000815260040161156e906123c3565b60405180910390fd5b809150505b92915050565b60006115c483836040518060400160405280601a81526020017f536166654d6174683a206469766973696f6e206279207a65726f000000000000815250611880565b905092915050565b600061160c633b9aca006115fe60646115f06004548761158290919063ffffffff16565b61150890919063ffffffff16565b61158290919063ffffffff16565b9050919050565b600660009054906101000a900460ff1615611663576040517f08c379a000000000000000000000000000000000000000000000000000000000815260040161165a9061242f565b60405180910390fd5b600073ffffffffffffffffffffffffffffffffffffffff168273ffffffffffffffffffffffffffffffffffffffff16036116d2576040517f08c379a00000000000000000000000000000000000000000000000000000000081526004016116c99061249b565b60405180910390fd5b60008103611715576040517f08c379a000000000000000000000000000000000000000000000000000000000815260040161170c90612507565b60405180910390fd5b8061171e611195565b101561175f576040517f08c379a000000000000000000000000000000000000000000000000000000000815260040161175690612573565b60405180910390fd5b5050565b61176d82826118e3565b5050565b6117f28363a9059cbb60e01b8484604051602401611790929190612593565b604051602081830303815290604052907bffffffffffffffffffffffffffffffffffffffffffffffffffffffff19166020820180517bffffffffffffffffffffffffffffffffffffffffffffffffffffffff8381831617835250505050611973565b505050565b61187a846323b872dd60e01b858585604051602401611818939291906125bc565b604051602081830303815290604052907bffffffffffffffffffffffffffffffffffffffffffffffffffffffff19166020820180517bffffffffffffffffffffffffffffffffffffffffffffffffffffffff8381831617835250505050611973565b50505050565b600080831182906118c7576040517f08c379a00000000000000000000000000000000000000000000000000000000081526004016118be9190612672565b60405180910390fd5b50600083856118d69190612320565b9050809150509392505050565b611954600360009054906101000a900473ffffffffffffffffffffffffffffffffffffffff168383600260009054906101000a900473ffffffffffffffffffffffffffffffffffffffff1673ffffffffffffffffffffffffffffffffffffffff166117f7909392919063ffffffff16565b61196981600554611a3a90919063ffffffff16565b6005819055505050565b60006119d5826040518060400160405280602081526020017f5361666545524332303a206c6f772d6c6576656c2063616c6c206661696c65648152508573ffffffffffffffffffffffffffffffffffffffff16611a989092919063ffffffff16565b9050600081511115611a3557808060200190518101906119f591906126a9565b611a34576040517f08c379a0000000000000000000000000000000000000000000000000000000008152600401611a2b90612748565b60405180910390fd5b5b505050565b6000808284611a499190612768565b905083811015611a8e576040517f08c379a0000000000000000000000000000000000000000000000000000000008152600401611a85906127e8565b60405180910390fd5b8091505092915050565b6060611aa78484600085611ab0565b90509392505050565b6060611abb85611bd2565b611afa576040517f08c379a0000000000000000000000000000000000000000000000000000000008152600401611af190612854565b60405180910390fd5b6000808673ffffffffffffffffffffffffffffffffffffffff168587604051611b2391906128bb565b60006040518083038185875af1925050503d8060008114611b60576040519150601f19603f3d011682016040523d82523d6000602084013e611b65565b606091505b50915091508115611b7a578092505050611bca565b600081511115611b8d5780518082602001fd5b836040517f08c379a0000000000000000000000000000000000000000000000000000000008152600401611bc19190612672565b60405180910390fd5b949350505050565b60008060007fc5d2460186f7233c927e7db2dcc703c0e500b653ca82273b7bfad8045d85a47060001b9050833f9150808214158015611c1457506000801b8214155b92505050919050565b6000819050919050565b611c3081611c1d565b82525050565b6000602082019050611c4b6000830184611c27565b92915050565b600080fd5b611c5f81611c1d565b8114611c6a57600080fd5b50565b600081359050611c7c81611c56565b92915050565b600060208284031215611c9857611c97611c51565b5b6000611ca684828501611c6d565b91505092915050565b600073ffffffffffffffffffffffffffffffffffffffff82169050919050565b6000611cda82611caf565b9050919050565b611cea81611ccf565b82525050565b6000602082019050611d056000830184611ce1565b92915050565b6000611d1682611caf565b9050919050565b611d2681611d0b565b82525050565b6000602082019050611d416000830184611d1d565b92915050565b60008115159050919050565b611d5c81611d47565b82525050565b6000602082019050611d776000830184611d53565b92915050565b611d8681611d47565b8114611d9157600080fd5b50565b600081359050611da381611d7d565b92915050565b600060208284031215611dbf57611dbe611c51565b5b6000611dcd84828501611d94565b91505092915050565b611ddf81611d0b565b8114611dea57600080fd5b50565b600081359050611dfc81611dd6565b92915050565b600060208284031215611e1857611e17611c51565b5b6000611e2684828501611ded565b91505092915050565b6000819050919050565b6000611e54611e4f611e4a84611caf565b611e2f565b611caf565b9050919050565b6000611e6682611e39565b9050919050565b6000611e7882611e5b565b9050919050565b611e8881611e6d565b82525050565b6000602082019050611ea36000830184611e7f565b92915050565b600082825260208201905092915050565b7f5265656e7472616e637947756172643a207265656e7472616e742063616c6c00600082015250565b6000611ef0601f83611ea9565b9150611efb82611eba565b602082019050919050565b60006020820190508181036000830152611f1f81611ee3565b9050919050565b7f416d6f756e742069732030000000000000000000000000000000000000000000600082015250565b6000611f5c600b83611ea9565b9150611f6782611f26565b602082019050919050565b60006020820190508181036000830152611f8b81611f4f565b9050919050565b6000819050919050565b611fa581611f92565b8114611fb057600080fd5b50565b600081519050611fc281611f9c565b92915050565b600060208284031215611fde57611fdd611c51565b5b6000611fec84828501611fb3565b91505092915050565b7f4f776e61626c653a2063616c6c6572206973206e6f7420746865206f776e6572600082015250565b600061202b602083611ea9565b915061203682611ff5565b602082019050919050565b6000602082019050818103600083015261205a8161201e565b9050919050565b60008151905061207081611c56565b92915050565b60006020828403121561208c5761208b611c51565b5b600061209a84828501612061565b91505092915050565b7f4e6f7420456e6f7567682042616c616e63650000000000000000000000000000600082015250565b60006120d9601283611ea9565b91506120e4826120a3565b602082019050919050565b60006020820190508181036000830152612108816120cc565b9050919050565b60006040820190506121246000830185611d1d565b6121316020830184611d1d565b9392505050565b7f4e6f7420456e6f75676820416c6c6f77616e6365000000000000000000000000600082015250565b600061216e601483611ea9565b915061217982612138565b602082019050919050565b6000602082019050818103600083015261219d81612161565b9050919050565b60006121af82611e5b565b9050919050565b6121bf816121a4565b82525050565b60006040820190506121da60008301856121b6565b6121e76020830184611d1d565b9392505050565b7f4f776e61626c653a206e6577206f776e657220697320746865207a65726f206160008201527f6464726573730000000000000000000000000000000000000000000000000000602082015250565b600061224a602683611ea9565b9150612255826121ee565b604082019050919050565b600060208201905081810360008301526122798161223d565b9050919050565b7f4e487b7100000000000000000000000000000000000000000000000000000000600052601160045260246000fd5b60006122ba82611c1d565b91506122c583611c1d565b92508282026122d381611c1d565b915082820484148315176122ea576122e9612280565b5b5092915050565b7f4e487b7100000000000000000000000000000000000000000000000000000000600052601260045260246000fd5b600061232b82611c1d565b915061233683611c1d565b925082612346576123456122f1565b5b828204905092915050565b7f536166654d6174683a206d756c7469706c69636174696f6e206f766572666c6f60008201527f7700000000000000000000000000000000000000000000000000000000000000602082015250565b60006123ad602183611ea9565b91506123b882612351565b604082019050919050565b600060208201905081810360008301526123dc816123a0565b9050919050565b7f53616c6520456e64656400000000000000000000000000000000000000000000600082015250565b6000612419600a83611ea9565b9150612424826123e3565b602082019050919050565b600060208201905081810360008301526124488161240c565b9050919050565b7f427579657220697320746865207a65726f206164647265737300000000000000600082015250565b6000612485601983611ea9565b91506124908261244f565b602082019050919050565b600060208201905081810360008301526124b481612478565b9050919050565b7f53616c6520746f6b656e20616d6f756e74206973203000000000000000000000600082015250565b60006124f1601683611ea9565b91506124fc826124bb565b602082019050919050565b60006020820190508181036000830152612520816124e4565b9050919050565b7f4c65737320746f6b656e732072656d61696e696e670000000000000000000000600082015250565b600061255d601583611ea9565b915061256882612527565b602082019050919050565b6000602082019050818103600083015261258c81612550565b9050919050565b60006040820190506125a86000830185611d1d565b6125b56020830184611c27565b9392505050565b60006060820190506125d16000830186611d1d565b6125de6020830185611d1d565b6125eb6040830184611c27565b949350505050565b600081519050919050565b60005b8381101561261c578082015181840152602081019050612601565b60008484015250505050565b6000601f19601f8301169050919050565b6000612644826125f3565b61264e8185611ea9565b935061265e8185602086016125fe565b61266781612628565b840191505092915050565b6000602082019050818103600083015261268c8184612639565b905092915050565b6000815190506126a381611d7d565b92915050565b6000602082840312156126bf576126be611c51565b5b60006126cd84828501612694565b91505092915050565b7f5361666545524332303a204552433230206f7065726174696f6e20646964206e60008201527f6f74207375636365656400000000000000000000000000000000000000000000602082015250565b6000612732602a83611ea9565b915061273d826126d6565b604082019050919050565b6000602082019050818103600083015261276181612725565b9050919050565b600061277382611c1d565b915061277e83611c1d565b925082820190508082111561279657612795612280565b5b92915050565b7f536166654d6174683a206164646974696f6e206f766572666c6f770000000000600082015250565b60006127d2601b83611ea9565b91506127dd8261279c565b602082019050919050565b60006020820190508181036000830152612801816127c5565b9050919050565b7f416464726573733a2063616c6c20746f206e6f6e2d636f6e7472616374000000600082015250565b600061283e601d83611ea9565b915061284982612808565b602082019050919050565b6000602082019050818103600083015261286d81612831565b9050919050565b600081519050919050565b600081905092915050565b600061289582612874565b61289f818561287f565b93506128af8185602086016125fe565b80840191505092915050565b60006128c7828461288a565b91508190509291505056fea2646970667358221220265966d4fcbc470c4dc34c14028ed4c63e16461bc43373cd1a68d926888710a564736f6c63430008130033",
  "immutableReferences": {},
  "source": "// File: contracts\\Context.sol\r\n\r\n// SPDX-License-Identifier: MIT\r\n\r\npragma solidity 0.8.19;\r\n\r\n/*\r\n * @dev Provides information about the current execution context, including the\r\n * sender of the transaction and its data. While these are generally available\r\n * via msg.sender and msg.data, they should not be accessed in such a direct\r\n * manner, since when dealing with GSN meta-transactions the account sending and\r\n * paying for execution may not be the actual sender (as far as an application\r\n * is concerned).\r\n *\r\n * This contract is only required for intermediate, library-like contracts.\r\n */\r\nabstract contract Context {\r\n    function _msgSender() internal view virtual returns (address payable) {\r\n        return payable(msg.sender);\r\n    }\r\n\r\n    function _msgData() internal view virtual returns (bytes memory) {\r\n        this; // silence state mutability warning without generating bytecode - see https://github.com/ethereum/solidity/issues/2691\r\n        return msg.data;\r\n    }\r\n}\r\n\r\n/**\r\n * @dev Contract module which provides a basic access control mechanism, where\r\n * there is an account (an owner) that can be granted exclusive access to\r\n * specific functions.\r\n *\r\n * By default, the owner account will be the one that deploys the contract. This\r\n * can later be changed with {transferOwnership}.\r\n *\r\n * This module is used through inheritance. It will make available the modifier\r\n * `onlyOwner`, which can be applied to your functions to restrict their use to\r\n * the owner.\r\n */\r\nabstract contract Ownable is Context {\r\n    address private _owner;\r\n\r\n    event OwnershipTransferred(\r\n        address indexed previousOwner,\r\n        address indexed newOwner\r\n    );\r\n\r\n    /**\r\n     * @dev Initializes the contract setting the deployer as the initial owner.\r\n     */\r\n    constructor() {\r\n        address msgSender = _msgSender();\r\n        _owner = msgSender;\r\n        emit OwnershipTransferred(address(0), msgSender);\r\n    }\r\n\r\n    /**\r\n     * @dev Returns the address of the current owner.\r\n     */\r\n    function owner() public view returns (address) {\r\n        return _owner;\r\n    }\r\n\r\n    /**\r\n     * @dev Throws if called by any account other than the owner.\r\n     */\r\n    modifier onlyOwner() {\r\n        require(_owner == _msgSender(), \"Ownable: caller is not the owner\");\r\n        _;\r\n    }\r\n\r\n    /**\r\n     * @dev Leaves the contract without owner. It will not be possible to call\r\n     * `onlyOwner` functions anymore. Can only be called by the current owner.\r\n     *\r\n     * NOTE: Renouncing ownership will leave the contract without an owner,\r\n     * thereby removing any functionality that is only available to the owner.\r\n     */\r\n    function renounceOwnership() public virtual onlyOwner {\r\n        emit OwnershipTransferred(_owner, address(0));\r\n        _owner = address(0);\r\n    }\r\n\r\n    /**\r\n     * @dev Transfers ownership of the contract to a new account (`newOwner`).\r\n     * Can only be called by the current owner.\r\n     */\r\n    function transferOwnership(address newOwner) public virtual onlyOwner {\r\n        require(\r\n            newOwner != address(0),\r\n            \"Ownable: new owner is the zero address\"\r\n        );\r\n        emit OwnershipTransferred(_owner, newOwner);\r\n        _owner = newOwner;\r\n    }\r\n}\r\n\r\n/**\r\n * @dev Interface of the ERC20 standard as defined in the EIP.\r\n */\r\ninterface IERC20 {\r\n    /**\r\n     * @dev Returns the amount of tokens in existence.\r\n     */\r\n    function totalSupply() external view returns (uint256);\r\n\r\n    /**\r\n     * @dev Returns the amount of tokens owned by `account`.\r\n     */\r\n    function balanceOf(address account) external view returns (uint256);\r\n\r\n    /**\r\n     * @dev Moves `amount` tokens from the caller's account to `recipient`.\r\n     *\r\n     * Returns a boolean value indicating whether the operation succeeded.\r\n     *\r\n     * Emits a {Transfer} event.\r\n     */\r\n    function transfer(\r\n        address recipient,\r\n        uint256 amount\r\n    ) external returns (bool);\r\n\r\n    /**\r\n     * @dev Returns the remaining number of tokens that `spender` will be\r\n     * allowed to spend on behalf of `owner` through {transferFrom}. This is\r\n     * zero by default.\r\n     *\r\n     * This value changes when {approve} or {transferFrom} are called.\r\n     */\r\n    function allowance(\r\n        address owner,\r\n        address spender\r\n    ) external view returns (uint256);\r\n\r\n    /**\r\n     * @dev Sets `amount` as the allowance of `spender` over the caller's tokens.\r\n     *\r\n     * Returns a boolean value indicating whether the operation succeeded.\r\n     *\r\n     * IMPORTANT: Beware that changing an allowance with this method brings the risk\r\n     * that someone may use both the old and the new allowance by unfortunate\r\n     * transaction ordering. One possible solution to mitigate this race\r\n     * condition is to first reduce the spender's allowance to 0 and set the\r\n     * desired value afterwards:\r\n     * https://github.com/ethereum/EIPs/issues/20#issuecomment-263524729\r\n     *\r\n     * Emits an {Approval} event.\r\n     */\r\n    function approve(address spender, uint256 amount) external returns (bool);\r\n\r\n    /**\r\n     * @dev Moves `amount` tokens from `sender` to `recipient` using the\r\n     * allowance mechanism. `amount` is then deducted from the caller's\r\n     * allowance.\r\n     *\r\n     * Returns a boolean value indicating whether the operation succeeded.\r\n     *\r\n     * Emits a {Transfer} event.\r\n     */\r\n    function transferFrom(\r\n        address sender,\r\n        address recipient,\r\n        uint256 amount\r\n    ) external returns (bool);\r\n\r\n    /**\r\n     * @dev Emitted when `value` tokens are moved from one account (`from`) to\r\n     * another (`to`).\r\n     *\r\n     * Note that `value` may be zero.\r\n     */\r\n    event Transfer(address indexed from, address indexed to, uint256 value);\r\n\r\n    /**\r\n     * @dev Emitted when the allowance of a `spender` for an `owner` is set by\r\n     * a call to {approve}. `value` is the new allowance.\r\n     */\r\n    event Approval(\r\n        address indexed owner,\r\n        address indexed spender,\r\n        uint256 value\r\n    );\r\n}\r\n\r\n/**\r\n * @dev Wrappers over Solidity's arithmetic operations with added overflow\r\n * checks.\r\n *\r\n * Arithmetic operations in Solidity wrap on overflow. This can easily result\r\n * in bugs, because programmers usually assume that an overflow raises an\r\n * error, which is the standard behavior in high level programming languages.\r\n * `SafeMath` restores this intuition by reverting the transaction when an\r\n * operation overflows.\r\n *\r\n * Using this library instead of the unchecked operations eliminates an entire\r\n * class of bugs, so it's recommended to use it always.\r\n */\r\nlibrary SafeMath {\r\n    /**\r\n     * @dev Returns the addition of two unsigned integers, reverting on\r\n     * overflow.\r\n     *\r\n     * Counterpart to Solidity's `+` operator.\r\n     *\r\n     * Requirements:\r\n     *\r\n     * - Addition cannot overflow.\r\n     */\r\n    function add(uint256 a, uint256 b) internal pure returns (uint256) {\r\n        uint256 c = a + b;\r\n        require(c >= a, \"SafeMath: addition overflow\");\r\n\r\n        return c;\r\n    }\r\n\r\n    /**\r\n     * @dev Returns the subtraction of two unsigned integers, reverting on\r\n     * overflow (when the result is negative).\r\n     *\r\n     * Counterpart to Solidity's `-` operator.\r\n     *\r\n     * Requirements:\r\n     *\r\n     * - Subtraction cannot overflow.\r\n     */\r\n    function sub(uint256 a, uint256 b) internal pure returns (uint256) {\r\n        return sub(a, b, \"SafeMath: subtraction overflow\");\r\n    }\r\n\r\n    /**\r\n     * @dev Returns the subtraction of two unsigned integers, reverting with custom message on\r\n     * overflow (when the result is negative).\r\n     *\r\n     * Counterpart to Solidity's `-` operator.\r\n     *\r\n     * Requirements:\r\n     *\r\n     * - Subtraction cannot overflow.\r\n     */\r\n    function sub(\r\n        uint256 a,\r\n        uint256 b,\r\n        string memory errorMessage\r\n    ) internal pure returns (uint256) {\r\n        require(b <= a, errorMessage);\r\n        uint256 c = a - b;\r\n\r\n        return c;\r\n    }\r\n\r\n    /**\r\n     * @dev Returns the multiplication of two unsigned integers, reverting on\r\n     * overflow.\r\n     *\r\n     * Counterpart to Solidity's `*` operator.\r\n     *\r\n     * Requirements:\r\n     *\r\n     * - Multiplication cannot overflow.\r\n     */\r\n    function mul(uint256 a, uint256 b) internal pure returns (uint256) {\r\n        // Gas optimization: this is cheaper than requiring 'a' not being zero, but the\r\n        // benefit is lost if 'b' is also tested.\r\n        // See: https://github.com/OpenZeppelin/openzeppelin-contracts/pull/522\r\n        if (a == 0) {\r\n            return 0;\r\n        }\r\n\r\n        uint256 c = a * b;\r\n        require(c / a == b, \"SafeMath: multiplication overflow\");\r\n\r\n        return c;\r\n    }\r\n\r\n    /**\r\n     * @dev Returns the integer division of two unsigned integers. Reverts on\r\n     * division by zero. The result is rounded towards zero.\r\n     *\r\n     * Counterpart to Solidity's `/` operator. Note: this function uses a\r\n     * `revert` opcode (which leaves remaining gas untouched) while Solidity\r\n     * uses an invalid opcode to revert (consuming all remaining gas).\r\n     *\r\n     * Requirements:\r\n     *\r\n     * - The divisor cannot be zero.\r\n     */\r\n    function div(uint256 a, uint256 b) internal pure returns (uint256) {\r\n        return div(a, b, \"SafeMath: division by zero\");\r\n    }\r\n\r\n    /**\r\n     * @dev Returns the integer division of two unsigned integers. Reverts with custom message on\r\n     * division by zero. The result is rounded towards zero.\r\n     *\r\n     * Counterpart to Solidity's `/` operator. Note: this function uses a\r\n     * `revert` opcode (which leaves remaining gas untouched) while Solidity\r\n     * uses an invalid opcode to revert (consuming all remaining gas).\r\n     *\r\n     * Requirements:\r\n     *\r\n     * - The divisor cannot be zero.\r\n     */\r\n    function div(\r\n        uint256 a,\r\n        uint256 b,\r\n        string memory errorMessage\r\n    ) internal pure returns (uint256) {\r\n        require(b > 0, errorMessage);\r\n        uint256 c = a / b;\r\n        // assert(a == b * c + a % b); // There is no case in which this doesn't hold\r\n\r\n        return c;\r\n    }\r\n\r\n    /**\r\n     * @dev Returns the remainder of dividing two unsigned integers. (unsigned integer modulo),\r\n     * Reverts when dividing by zero.\r\n     *\r\n     * Counterpart to Solidity's `%` operator. This function uses a `revert`\r\n     * opcode (which leaves remaining gas untouched) while Solidity uses an\r\n     * invalid opcode to revert (consuming all remaining gas).\r\n     *\r\n     * Requirements:\r\n     *\r\n     * - The divisor cannot be zero.\r\n     */\r\n    function mod(uint256 a, uint256 b) internal pure returns (uint256) {\r\n        return mod(a, b, \"SafeMath: modulo by zero\");\r\n    }\r\n\r\n    /**\r\n     * @dev Returns the remainder of dividing two unsigned integers. (unsigned integer modulo),\r\n     * Reverts with custom message when dividing by zero.\r\n     *\r\n     * Counterpart to Solidity's `%` operator. This function uses a `revert`\r\n     * opcode (which leaves remaining gas untouched) while Solidity uses an\r\n     * invalid opcode to revert (consuming all remaining gas).\r\n     *\r\n     * Requirements:\r\n     *\r\n     * - The divisor cannot be zero.\r\n     */\r\n    function mod(\r\n        uint256 a,\r\n        uint256 b,\r\n        string memory errorMessage\r\n    ) internal pure returns (uint256) {\r\n        require(b != 0, errorMessage);\r\n        return a % b;\r\n    }\r\n\r\n    function ceil(uint256 a, uint256 m) internal pure returns (uint256) {\r\n        uint256 c = add(a, m);\r\n        uint256 d = sub(c, 1);\r\n        return mul(div(d, m), m);\r\n    }\r\n\r\n    function divRound(uint256 x, uint256 y) internal pure returns (uint256) {\r\n        require(y != 0, \"Div by zero\");\r\n        uint256 r = x / y;\r\n        if (x % y != 0) {\r\n            r = r + 1;\r\n        }\r\n\r\n        return r;\r\n    }\r\n}\r\n\r\n/**\r\n * @dev Collection of functions related to the address type\r\n */\r\nlibrary Address {\r\n    /**\r\n     * @dev Returns true if `account` is a contract.\r\n     *\r\n     * [IMPORTANT]\r\n     * ====\r\n     * It is unsafe to assume that an address for which this function returns\r\n     * false is an externally-owned account (EOA) and not a contract.\r\n     *\r\n     * Among others, `isContract` will return false for the following\r\n     * types of addresses:\r\n     *\r\n     *  - an externally-owned account\r\n     *  - a contract in construction\r\n     *  - an address where a contract will be created\r\n     *  - an address where a contract lived, but was destroyed\r\n     * ====\r\n     */\r\n    function isContract(address account) internal view returns (bool) {\r\n        // According to EIP-1052, 0x0 is the value returned for not-yet created accounts\r\n        // and 0xc5d2460186f7233c927e7db2dcc703c0e500b653ca82273b7bfad8045d85a470 is returned\r\n        // for accounts without code, i.e. `keccak256('')`\r\n        bytes32 codehash;\r\n\r\n        bytes32 accountHash = 0xc5d2460186f7233c927e7db2dcc703c0e500b653ca82273b7bfad8045d85a470;\r\n        // solhint-disable-next-line no-inline-assembly\r\n        assembly {\r\n            codehash := extcodehash(account)\r\n        }\r\n        return (codehash != accountHash && codehash != 0x0);\r\n    }\r\n\r\n    /**\r\n     * @dev Replacement for Solidity's `transfer`: sends `amount` wei to\r\n     * `recipient`, forwarding all available gas and reverting on errors.\r\n     *\r\n     * https://eips.ethereum.org/EIPS/eip-1884[EIP1884] increases the gas cost\r\n     * of certain opcodes, possibly making contracts go over the 2300 gas limit\r\n     * imposed by `transfer`, making them unable to receive funds via\r\n     * `transfer`. {sendValue} removes this limitation.\r\n     *\r\n     * https://diligence.consensys.net/posts/2019/09/stop-using-soliditys-transfer-now/[Learn more].\r\n     *\r\n     * IMPORTANT: because control is transferred to `recipient`, care must be\r\n     * taken to not create reentrancy vulnerabilities. Consider using\r\n     * {ReentrancyGuard} or the\r\n     * https://solidity.readthedocs.io/en/v0.5.11/security-considerations.html#use-the-checks-effects-interactions-pattern[checks-effects-interactions pattern].\r\n     */\r\n    function sendValue(address payable recipient, uint256 amount) internal {\r\n        require(\r\n            address(this).balance >= amount,\r\n            \"Address: insufficient balance\"\r\n        );\r\n\r\n        // solhint-disable-next-line avoid-low-level-calls, avoid-call-value\r\n        (bool success, ) = recipient.call{value: amount}(\"\");\r\n        require(\r\n            success,\r\n            \"Address: unable to send value, recipient may have reverted\"\r\n        );\r\n    }\r\n\r\n    /**\r\n     * @dev Performs a Solidity function call using a low level `call`. A\r\n     * plain`call` is an unsafe replacement for a function call: use this\r\n     * function instead.\r\n     *\r\n     * If `target` reverts with a revert reason, it is bubbled up by this\r\n     * function (like regular Solidity function calls).\r\n     *\r\n     * Returns the raw returned data. To convert to the expected return value,\r\n     * use https://solidity.readthedocs.io/en/latest/units-and-global-variables.html?highlight=abi.decode#abi-encoding-and-decoding-functions[`abi.decode`].\r\n     *\r\n     * Requirements:\r\n     *\r\n     * - `target` must be a contract.\r\n     * - calling `target` with `data` must not revert.\r\n     *\r\n     * _Available since v3.1._\r\n     */\r\n    function functionCall(\r\n        address target,\r\n        bytes memory data\r\n    ) internal returns (bytes memory) {\r\n        return functionCall(target, data, \"Address: low-level call failed\");\r\n    }\r\n\r\n    /**\r\n     * @dev Same as {xref-Address-functionCall-address-bytes-}[`functionCall`], but with\r\n     * `errorMessage` as a fallback revert reason when `target` reverts.\r\n     *\r\n     * _Available since v3.1._\r\n     */\r\n    function functionCall(\r\n        address target,\r\n        bytes memory data,\r\n        string memory errorMessage\r\n    ) internal returns (bytes memory) {\r\n        return _functionCallWithValue(target, data, 0, errorMessage);\r\n    }\r\n\r\n    /**\r\n     * @dev Same as {xref-Address-functionCall-address-bytes-}[`functionCall`],\r\n     * but also transferring `value` wei to `target`.\r\n     *\r\n     * Requirements:\r\n     *\r\n     * - the calling contract must have an ETH balance of at least `value`.\r\n     * - the called Solidity function must be `payable`.\r\n     *\r\n     * _Available since v3.1._\r\n     */\r\n    function functionCallWithValue(\r\n        address target,\r\n        bytes memory data,\r\n        uint256 value\r\n    ) internal returns (bytes memory) {\r\n        return\r\n            functionCallWithValue(\r\n                target,\r\n                data,\r\n                value,\r\n                \"Address: low-level call with value failed\"\r\n            );\r\n    }\r\n\r\n    /**\r\n     * @dev Same as {xref-Address-functionCallWithValue-address-bytes-uint256-}[`functionCallWithValue`], but\r\n     * with `errorMessage` as a fallback revert reason when `target` reverts.\r\n     *\r\n     * _Available since v3.1._\r\n     */\r\n    function functionCallWithValue(\r\n        address target,\r\n        bytes memory data,\r\n        uint256 value,\r\n        string memory errorMessage\r\n    ) internal returns (bytes memory) {\r\n        require(\r\n            address(this).balance >= value,\r\n            \"Address: insufficient balance for call\"\r\n        );\r\n        return _functionCallWithValue(target, data, value, errorMessage);\r\n    }\r\n\r\n    function _functionCallWithValue(\r\n        address target,\r\n        bytes memory data,\r\n        uint256 weiValue,\r\n        string memory errorMessage\r\n    ) private returns (bytes memory) {\r\n        require(isContract(target), \"Address: call to non-contract\");\r\n\r\n        // solhint-disable-next-line avoid-low-level-calls\r\n        (bool success, bytes memory returndata) = target.call{value: weiValue}(\r\n            data\r\n        );\r\n        if (success) {\r\n            return returndata;\r\n        } else {\r\n            // Look for revert reason and bubble it up if present\r\n            if (returndata.length > 0) {\r\n                // The easiest way to bubble the revert reason is using memory via assembly\r\n\r\n                // solhint-disable-next-line no-inline-assembly\r\n                assembly {\r\n                    let returndata_size := mload(returndata)\r\n                    revert(add(32, returndata), returndata_size)\r\n                }\r\n            } else {\r\n                revert(errorMessage);\r\n            }\r\n        }\r\n    }\r\n}\r\n\r\n/**\r\n * @title SafeERC20\r\n * @dev Wrappers around ERC20 operations that throw on failure (when the token\r\n * contract returns false). Tokens that return no value (and instead revert or\r\n * throw on failure) are also supported, non-reverting calls are assumed to be\r\n * successful.\r\n * To use this library you can add a `using SafeERC20 for IERC20;` statement to your contract,\r\n * which allows you to call the safe operations as `token.safeTransfer(...)`, etc.\r\n */\r\nlibrary SafeERC20 {\r\n    using SafeMath for uint256;\r\n    using Address for address;\r\n\r\n    function safeTransfer(IERC20 token, address to, uint256 value) internal {\r\n        _callOptionalReturn(\r\n            token,\r\n            abi.encodeWithSelector(token.transfer.selector, to, value)\r\n        );\r\n    }\r\n\r\n    function safeTransferFrom(\r\n        IERC20 token,\r\n        address from,\r\n        address to,\r\n        uint256 value\r\n    ) internal {\r\n        _callOptionalReturn(\r\n            token,\r\n            abi.encodeWithSelector(token.transferFrom.selector, from, to, value)\r\n        );\r\n    }\r\n\r\n    /**\r\n     * @dev Deprecated. This function has issues similar to the ones found in\r\n     * {IERC20-approve}, and its usage is discouraged.\r\n     *\r\n     * Whenever possible, use {safeIncreaseAllowance} and\r\n     * {safeDecreaseAllowance} instead.\r\n     */\r\n    function safeApprove(\r\n        IERC20 token,\r\n        address spender,\r\n        uint256 value\r\n    ) internal {\r\n        // safeApprove should only be called when setting an initial allowance,\r\n        // or when resetting it to zero. To increase and decrease it, use\r\n        // 'safeIncreaseAllowance' and 'safeDecreaseAllowance'\r\n        // solhint-disable-next-line max-line-length\r\n        require(\r\n            (value == 0) || (token.allowance(address(this), spender) == 0),\r\n            \"SafeERC20: approve from non-zero to non-zero allowance\"\r\n        );\r\n        _callOptionalReturn(\r\n            token,\r\n            abi.encodeWithSelector(token.approve.selector, spender, value)\r\n        );\r\n    }\r\n\r\n    function safeIncreaseAllowance(\r\n        IERC20 token,\r\n        address spender,\r\n        uint256 value\r\n    ) internal {\r\n        uint256 newAllowance = token.allowance(address(this), spender).add(\r\n            value\r\n        );\r\n        _callOptionalReturn(\r\n            token,\r\n            abi.encodeWithSelector(\r\n                token.approve.selector,\r\n                spender,\r\n                newAllowance\r\n            )\r\n        );\r\n    }\r\n\r\n    function safeDecreaseAllowance(\r\n        IERC20 token,\r\n        address spender,\r\n        uint256 value\r\n    ) internal {\r\n        uint256 newAllowance = token.allowance(address(this), spender).sub(\r\n            value,\r\n            \"SafeERC20: decreased allowance below zero\"\r\n        );\r\n        _callOptionalReturn(\r\n            token,\r\n            abi.encodeWithSelector(\r\n                token.approve.selector,\r\n                spender,\r\n                newAllowance\r\n            )\r\n        );\r\n    }\r\n\r\n    /**\r\n     * @dev Imitates a Solidity high-level call (i.e. a regular function call to a contract), relaxing the requirement\r\n     * on the return value: the return value is optional (but if data is returned, it must not be false).\r\n     * @param token The token targeted by the call.\r\n     * @param data The call data (encoded using abi.encode or one of its variants).\r\n     */\r\n    function _callOptionalReturn(IERC20 token, bytes memory data) private {\r\n        // We need to perform a low level call here, to bypass Solidity's return data size checking mechanism, since\r\n        // we're implementing it ourselves. We use {Address.functionCall} to perform this call, which verifies that\r\n        // the target address contains contract code and also asserts for success in the low-level call.\r\n\r\n        bytes memory returndata = address(token).functionCall(\r\n            data,\r\n            \"SafeERC20: low-level call failed\"\r\n        );\r\n        if (returndata.length > 0) {\r\n            // Return data is optional\r\n            // solhint-disable-next-line max-line-length\r\n            require(\r\n                abi.decode(returndata, (bool)),\r\n                \"SafeERC20: ERC20 operation did not succeed\"\r\n            );\r\n        }\r\n    }\r\n}\r\n\r\n/**\r\n * @dev Contract module that helps prevent reentrant calls to a function.\r\n *\r\n * Inheriting from `ReentrancyGuard` will make the {nonReentrant} modifier\r\n * available, which can be applied to functions to make sure there are no nested\r\n * (reentrant) calls to them.\r\n *\r\n * Note that because there is a single `nonReentrant` guard, functions marked as\r\n * `nonReentrant` may not call one another. This can be worked around by making\r\n * those functions `private`, and then adding `external` `nonReentrant` entry\r\n * points to them.\r\n *\r\n * TIP: If you would like to learn more about reentrancy and alternative ways\r\n * to protect against it, check out our blog post\r\n * https://blog.openzeppelin.com/reentrancy-after-istanbul/[Reentrancy After Istanbul].\r\n */\r\nabstract contract ReentrancyGuard {\r\n    // Booleans are more expensive than uint256 or any type that takes up a full\r\n    // word because each write operation emits an extra SLOAD to first read the\r\n    // slot's contents, replace the bits taken up by the boolean, and then write\r\n    // back. This is the compiler's defense against contract upgrades and\r\n    // pointer aliasing, and it cannot be disabled.\r\n\r\n    // The values being non-zero value makes deployment a bit more expensive,\r\n    // but in exchange the refund on every call to nonReentrant will be lower in\r\n    // amount. Since refunds are capped to a percentage of the total\r\n    // transaction's gas, it is best to keep them low in cases like this one, to\r\n    // increase the likelihood of the full refund coming into effect.\r\n    uint256 private constant _NOT_ENTERED = 1;\r\n    uint256 private constant _ENTERED = 2;\r\n\r\n    uint256 private _status;\r\n\r\n    constructor() {\r\n        _status = _NOT_ENTERED;\r\n    }\r\n\r\n    /**\r\n     * @dev Prevents a contract from calling itself, directly or indirectly.\r\n     * Calling a `nonReentrant` function from another `nonReentrant`\r\n     * function is not supported. It is possible to prevent this from happening\r\n     * by making the `nonReentrant` function external, and make it call a\r\n     * `private` function that does the actual work.\r\n     */\r\n    modifier nonReentrant() {\r\n        // On the first call to nonReentrant, _notEntered will be true\r\n        require(_status != _ENTERED, \"ReentrancyGuard: reentrant call\");\r\n\r\n        // Any calls to nonReentrant after this point will fail\r\n        _status = _ENTERED;\r\n\r\n        _;\r\n\r\n        // By storing the original value once again, a refund is triggered (see\r\n        // https://eips.ethereum.org/EIPS/eip-2200)\r\n        _status = _NOT_ENTERED;\r\n    }\r\n}\r\n\r\ninterface AggregatorV3Interface {\r\n    // function decimals() external view returns (uint8);\r\n    // function description() external view returns (string memory);\r\n    // function version() external view returns (uint256);\r\n    function latestAnswer() external view returns (int256);\r\n    // getRoundData and latestRoundData should both raise \"No data present\"\r\n    // if they do not have data to report, instead of returning unset values\r\n    // which could be misinterpreted as actual reported values.\r\n    // function getRoundData(uint80 _roundId)\r\n    //   external\r\n    //   view\r\n    //   returns (\r\n    //     uint80 roundId,\r\n    //     int256 answer,\r\n    //     uint256 startedAt,\r\n    //     uint256 updatedAt,\r\n    //     uint80 answeredInRound\r\n    //   );\r\n    // function latestRoundData()\r\n    //   external\r\n    //   view\r\n    //   returns (\r\n    //     uint80 roundId,\r\n    //     int256 answer,\r\n    //     uint256 startedAt,\r\n    //     uint256 updatedAt,\r\n    //     uint80 answeredInRound\r\n    //   );\r\n}\r\n\r\ncontract AstherSale is Context, ReentrancyGuard, Ownable {\r\n    using SafeMath for uint256;\r\n    using SafeERC20 for IERC20;\r\n\r\n    IERC20 private _token;\r\n    address payable private _wallet;\r\n    uint256 private _rate;\r\n    uint256 private _tokensSold;\r\n    bool private _end;\r\n    AggregatorV3Interface BUSDBNB =\r\n        AggregatorV3Interface(0x87Ea38c9F24264Ec1Fff41B04ec94a97Caf99941);\r\n    IERC20 BUSD = IERC20(0xe9e7CEA3DedcA5984780Bafc599bD69ADd087D56);\r\n    IERC20 USDT = IERC20(0x55d398326f99059fF775485246999027B3197955);\r\n\r\n    // AggregatorV3Interface BUSDBNB = AggregatorV3Interface(\r\n    //     0x0630521aC362bc7A19a4eE44b57cE72Ea34AD01c\r\n    // ); // Testnet\r\n    // IERC20 BUSD = IERC20(0xea9579a69EbD08217926B364E8c8de513FDf8E23); // Testnet\r\n    // IERC20 USDT = IERC20(0xea9579a69EbD08217926B364E8c8de513FDf8E23); // Testnet\r\n\r\n    event TokensPurchased(address indexed beneficiary, uint256 tokenAmount);\r\n    event RateChanged(uint256 rate);\r\n\r\n    constructor() {\r\n        _rate = 5;\r\n        _wallet = payable(0xa60205F7A2E709BBf7B74d761142CC35d85465A0);\r\n        _token = IERC20(0x1bffaFdf98f9266afef906385fB2A44Bc3dCAdc9);\r\n        _end = false;\r\n    }\r\n\r\n    function buyAstherwithBNB() public payable nonReentrant {\r\n        address beneficiary = _msgSender();\r\n        uint256 amount = msg.value;\r\n        require(amount != 0, \"Amount is 0\");\r\n        uint256 BNBPrice = uint256(BUSDBNB.latestAnswer());\r\n        uint256 tokenAmount = _getTokenAmount(\r\n            amount.mul(10 ** 18).div(BNBPrice)\r\n        );\r\n        _preValidatePurchase(beneficiary, tokenAmount);\r\n        _processPurchase(beneficiary, tokenAmount);\r\n        emit TokensPurchased(beneficiary, tokenAmount);\r\n        forwardBNB();\r\n    }\r\n\r\n    function buyAstherwithBUSD(uint256 amount) public nonReentrant {\r\n        address beneficiary = _msgSender();\r\n        require(amount != 0, \"Amount is 0\");\r\n        require(BUSD.balanceOf(beneficiary) >= amount, \"Not Enough Balance\");\r\n        require(\r\n            BUSD.allowance(beneficiary, address(this)) >= amount,\r\n            \"Not Enough Allowance\"\r\n        );\r\n        uint256 tokenAmount = _getTokenAmount(amount);\r\n        _preValidatePurchase(beneficiary, tokenAmount);\r\n        BUSD.safeTransferFrom(beneficiary, address(this), amount);\r\n        _processPurchase(beneficiary, tokenAmount);\r\n        emit TokensPurchased(beneficiary, tokenAmount);\r\n        forwardBUSD();\r\n    }\r\n\r\n    function buyAstherwithUSDT(uint256 amount) public nonReentrant {\r\n        address beneficiary = _msgSender();\r\n        require(amount != 0, \"Amount is 0\");\r\n        require(USDT.balanceOf(beneficiary) >= amount, \"Not Enough Balance\");\r\n        require(\r\n            BUSD.allowance(beneficiary, address(this)) >= amount,\r\n            \"Not Enough Allowance\"\r\n        );\r\n        uint256 tokenAmount = _getTokenAmount(amount);\r\n        _preValidatePurchase(beneficiary, tokenAmount);\r\n        USDT.safeTransferFrom(beneficiary, address(this), amount);\r\n        _processPurchase(beneficiary, tokenAmount);\r\n        emit TokensPurchased(beneficiary, tokenAmount);\r\n        forwardBUSD();\r\n    }\r\n\r\n    function _preValidatePurchase(\r\n        address beneficiary,\r\n        uint256 tokens\r\n    ) internal view {\r\n        require(!_end, \"Sale Ended\");\r\n        require(beneficiary != address(0), \"Buyer is the zero address\");\r\n        require(tokens != 0, \"Sale token amount is 0\");\r\n        require(remainingTokens() >= tokens, \"Less tokens remaining\");\r\n    }\r\n\r\n    function _deliverTokens(address beneficiary, uint256 tokenAmount) internal {\r\n        _token.safeTransferFrom(_wallet, beneficiary, tokenAmount);\r\n        _tokensSold = _tokensSold.add(tokenAmount);\r\n    }\r\n\r\n    function _processPurchase(\r\n        address beneficiary,\r\n        uint256 tokenAmount\r\n    ) internal {\r\n        _deliverTokens(beneficiary, tokenAmount);\r\n    }\r\n\r\n    function _getTokenAmount(uint256 amount) internal view returns (uint256) {\r\n        return amount.div(_rate).mul(100).div(10 ** 9);\r\n    }\r\n\r\n    function forwardBNB() public {\r\n        _wallet.transfer(address(this).balance);\r\n    }\r\n\r\n    function forwardAsther() public {\r\n        if (_token.balanceOf(address(this)) > 0) {\r\n            _token.safeTransfer(_wallet, _token.balanceOf(address(this)));\r\n        }\r\n    }\r\n\r\n    function forwardBUSD() public {\r\n        BUSD.safeTransfer(_wallet, BUSD.balanceOf(address(this)));\r\n    }\r\n\r\n    receive() external payable {\r\n        buyAstherwithBNB();\r\n    }\r\n\r\n    fallback() external payable {\r\n        buyAstherwithBNB();\r\n    }\r\n\r\n    function token() public view returns (IERC20) {\r\n        return _token;\r\n    }\r\n\r\n    function wallet() public view returns (address payable) {\r\n        return _wallet;\r\n    }\r\n\r\n    function rate() public view returns (uint256) {\r\n        return _rate;\r\n    }\r\n\r\n    function setRate(uint256 r) public onlyOwner {\r\n        _rate = r;\r\n        emit RateChanged(_rate);\r\n    }\r\n\r\n    function saleEnded() public view returns (bool) {\r\n        return _end;\r\n    }\r\n\r\n    function setEnd(bool end) external onlyOwner {\r\n        _end = end;\r\n    }\r\n\r\n    function tokensSold() public view returns (uint256) {\r\n        return _tokensSold;\r\n    }\r\n\r\n    function remainingTokens() public view returns (uint256) {\r\n        return _token.allowance(_wallet, address(this));\r\n    }\r\n}\r\n",
  "sourcePath": "C:\\Users\\suraj\\Documents\\code\\nextjs\\asthersale\\contracts\\AstherSale.sol",
  "compiler": {
    "name": "solc",
    "version": "0.8.19+commit.7dd6d404.Emscripten.clang"
  },
  "schemaVersion": "3.4.13",
  "updatedAt": "2023-04-11T14:06:05.639Z",
  "devdoc": {
    "kind": "dev",
    "methods": {
      "owner()": {
        "details": "Returns the address of the current owner."
      },
      "renounceOwnership()": {
        "details": "Leaves the contract without owner. It will not be possible to call `onlyOwner` functions anymore. Can only be called by the current owner. NOTE: Renouncing ownership will leave the contract without an owner, thereby removing any functionality that is only available to the owner."
      },
      "transferOwnership(address)": {
        "details": "Transfers ownership of the contract to a new account (`newOwner`). Can only be called by the current owner."
      }
    },
    "version": 1
  },
  "userdoc": {
    "kind": "user",
    "methods": {},
    "version": 1
  }
}